{
  "address": "0x21a5B1faeaBceB020ac5c0e32Ee5447C08B75fc6",
  "abi": [
    {
      "inputs": [
        {
          "internalType": "address",
          "name": "uausdAddress",
          "type": "address"
        },
        {
          "internalType": "address",
          "name": "paypalUsdtAddress",
          "type": "address"
        },
        {
          "internalType": "address",
          "name": "usdtAddress",
          "type": "address"
        },
        {
          "internalType": "address",
          "name": "usdcAddress",
          "type": "address"
        },
        {
          "internalType": "string",
          "name": "initialMetadataURI",
          "type": "string"
        },
        {
          "internalType": "address",
          "name": "initialOwner",
          "type": "address"
        }
      ],
      "stateMutability": "nonpayable",
      "type": "constructor"
    },
    {
      "inputs": [
        {
          "internalType": "address",
          "name": "sender",
          "type": "address"
        },
        {
          "internalType": "uint256",
          "name": "balance",
          "type": "uint256"
        },
        {
          "internalType": "uint256",
          "name": "needed",
          "type": "uint256"
        },
        {
          "internalType": "uint256",
          "name": "tokenId",
          "type": "uint256"
        }
      ],
      "name": "ERC1155InsufficientBalance",
      "type": "error"
    },
    {
      "inputs": [
        {
          "internalType": "address",
          "name": "approver",
          "type": "address"
        }
      ],
      "name": "ERC1155InvalidApprover",
      "type": "error"
    },
    {
      "inputs": [
        {
          "internalType": "uint256",
          "name": "idsLength",
          "type": "uint256"
        },
        {
          "internalType": "uint256",
          "name": "valuesLength",
          "type": "uint256"
        }
      ],
      "name": "ERC1155InvalidArrayLength",
      "type": "error"
    },
    {
      "inputs": [
        {
          "internalType": "address",
          "name": "operator",
          "type": "address"
        }
      ],
      "name": "ERC1155InvalidOperator",
      "type": "error"
    },
    {
      "inputs": [
        {
          "internalType": "address",
          "name": "receiver",
          "type": "address"
        }
      ],
      "name": "ERC1155InvalidReceiver",
      "type": "error"
    },
    {
      "inputs": [
        {
          "internalType": "address",
          "name": "sender",
          "type": "address"
        }
      ],
      "name": "ERC1155InvalidSender",
      "type": "error"
    },
    {
      "inputs": [
        {
          "internalType": "address",
          "name": "operator",
          "type": "address"
        },
        {
          "internalType": "address",
          "name": "owner",
          "type": "address"
        }
      ],
      "name": "ERC1155MissingApprovalForAll",
      "type": "error"
    },
    {
      "inputs": [],
      "name": "EnforcedPause",
      "type": "error"
    },
    {
      "inputs": [],
      "name": "ExpectedPause",
      "type": "error"
    },
    {
      "inputs": [
        {
          "internalType": "address",
          "name": "owner",
          "type": "address"
        }
      ],
      "name": "OwnableInvalidOwner",
      "type": "error"
    },
    {
      "inputs": [
        {
          "internalType": "address",
          "name": "account",
          "type": "address"
        }
      ],
      "name": "OwnableUnauthorizedAccount",
      "type": "error"
    },
    {
      "inputs": [],
      "name": "ReentrancyGuardReentrantCall",
      "type": "error"
    },
    {
      "inputs": [
        {
          "internalType": "address",
          "name": "token",
          "type": "address"
        }
      ],
      "name": "SafeERC20FailedOperation",
      "type": "error"
    },
    {
      "anonymous": false,
      "inputs": [
        {
          "indexed": true,
          "internalType": "address",
          "name": "account",
          "type": "address"
        },
        {
          "indexed": true,
          "internalType": "address",
          "name": "operator",
          "type": "address"
        },
        {
          "indexed": false,
          "internalType": "bool",
          "name": "approved",
          "type": "bool"
        }
      ],
      "name": "ApprovalForAll",
      "type": "event"
    },
    {
      "anonymous": false,
      "inputs": [
        {
          "indexed": false,
          "internalType": "string",
          "name": "newMetadataURI",
          "type": "string"
        }
      ],
      "name": "MetadataURIUpdated",
      "type": "event"
    },
    {
      "anonymous": false,
      "inputs": [
        {
          "indexed": true,
          "internalType": "address",
          "name": "beneficiary",
          "type": "address"
        },
        {
          "indexed": true,
          "internalType": "uint256",
          "name": "tokenId",
          "type": "uint256"
        }
      ],
      "name": "NFTMinted",
      "type": "event"
    },
    {
      "anonymous": false,
      "inputs": [
        {
          "indexed": true,
          "internalType": "address",
          "name": "previousOwner",
          "type": "address"
        },
        {
          "indexed": true,
          "internalType": "address",
          "name": "newOwner",
          "type": "address"
        }
      ],
      "name": "OwnershipTransferred",
      "type": "event"
    },
    {
      "anonymous": false,
      "inputs": [
        {
          "indexed": false,
          "internalType": "address",
          "name": "account",
          "type": "address"
        }
      ],
      "name": "Paused",
      "type": "event"
    },
    {
      "anonymous": false,
      "inputs": [
        {
          "indexed": true,
          "internalType": "address",
          "name": "beneficiary",
          "type": "address"
        },
        {
          "indexed": true,
          "internalType": "address",
          "name": "serviceProvider",
          "type": "address"
        },
        {
          "indexed": false,
          "internalType": "uint256",
          "name": "amount",
          "type": "uint256"
        }
      ],
      "name": "Redeemed",
      "type": "event"
    },
    {
      "anonymous": false,
      "inputs": [
        {
          "indexed": true,
          "internalType": "address",
          "name": "operator",
          "type": "address"
        },
        {
          "indexed": true,
          "internalType": "address",
          "name": "from",
          "type": "address"
        },
        {
          "indexed": true,
          "internalType": "address",
          "name": "to",
          "type": "address"
        },
        {
          "indexed": false,
          "internalType": "uint256[]",
          "name": "ids",
          "type": "uint256[]"
        },
        {
          "indexed": false,
          "internalType": "uint256[]",
          "name": "values",
          "type": "uint256[]"
        }
      ],
      "name": "TransferBatch",
      "type": "event"
    },
    {
      "anonymous": false,
      "inputs": [
        {
          "indexed": true,
          "internalType": "address",
          "name": "operator",
          "type": "address"
        },
        {
          "indexed": true,
          "internalType": "address",
          "name": "from",
          "type": "address"
        },
        {
          "indexed": true,
          "internalType": "address",
          "name": "to",
          "type": "address"
        },
        {
          "indexed": false,
          "internalType": "uint256",
          "name": "id",
          "type": "uint256"
        },
        {
          "indexed": false,
          "internalType": "uint256",
          "name": "value",
          "type": "uint256"
        }
      ],
      "name": "TransferSingle",
      "type": "event"
    },
    {
      "anonymous": false,
      "inputs": [
        {
          "indexed": false,
          "internalType": "string",
          "name": "value",
          "type": "string"
        },
        {
          "indexed": true,
          "internalType": "uint256",
          "name": "id",
          "type": "uint256"
        }
      ],
      "name": "URI",
      "type": "event"
    },
    {
      "anonymous": false,
      "inputs": [
        {
          "indexed": false,
          "internalType": "address",
          "name": "account",
          "type": "address"
        }
      ],
      "name": "Unpaused",
      "type": "event"
    },
    {
      "inputs": [],
      "name": "MAX_BENEFICIARIES",
      "outputs": [
        {
          "internalType": "uint256",
          "name": "",
          "type": "uint256"
        }
      ],
      "stateMutability": "view",
      "type": "function"
    },
    {
      "inputs": [],
      "name": "PayPalUSD",
      "outputs": [
        {
          "internalType": "contract IERC20",
          "name": "",
          "type": "address"
        }
      ],
      "stateMutability": "view",
      "type": "function"
    },
    {
      "inputs": [],
      "name": "UAUSD",
      "outputs": [
        {
          "internalType": "contract IERC20",
          "name": "",
          "type": "address"
        }
      ],
      "stateMutability": "view",
      "type": "function"
    },
    {
      "inputs": [],
      "name": "USDC",
      "outputs": [
        {
          "internalType": "contract IERC20",
          "name": "",
          "type": "address"
        }
      ],
      "stateMutability": "view",
      "type": "function"
    },
    {
      "inputs": [],
      "name": "USDT",
      "outputs": [
        {
          "internalType": "contract IERC20",
          "name": "",
          "type": "address"
        }
      ],
      "stateMutability": "view",
      "type": "function"
    },
    {
      "inputs": [
        {
          "internalType": "address",
          "name": "account",
          "type": "address"
        },
        {
          "internalType": "uint256",
          "name": "id",
          "type": "uint256"
        }
      ],
      "name": "balanceOf",
      "outputs": [
        {
          "internalType": "uint256",
          "name": "",
          "type": "uint256"
        }
      ],
      "stateMutability": "view",
      "type": "function"
    },
    {
      "inputs": [
        {
          "internalType": "address[]",
          "name": "accounts",
          "type": "address[]"
        },
        {
          "internalType": "uint256[]",
          "name": "ids",
          "type": "uint256[]"
        }
      ],
      "name": "balanceOfBatch",
      "outputs": [
        {
          "internalType": "uint256[]",
          "name": "",
          "type": "uint256[]"
        }
      ],
      "stateMutability": "view",
      "type": "function"
    },
    {
      "inputs": [
        {
          "internalType": "address",
          "name": "",
          "type": "address"
        }
      ],
      "name": "beneficiaryTokenId",
      "outputs": [
        {
          "internalType": "uint256",
          "name": "",
          "type": "uint256"
        }
      ],
      "stateMutability": "view",
      "type": "function"
    },
    {
      "inputs": [
        {
          "internalType": "address[]",
          "name": "beneficiaries",
          "type": "address[]"
        },
        {
          "internalType": "uint256",
          "name": "voucherPrice",
          "type": "uint256"
        },
        {
          "internalType": "uint256",
          "name": "currencyChoice",
          "type": "uint256"
        }
      ],
      "name": "donateAndMint",
      "outputs": [],
      "stateMutability": "nonpayable",
      "type": "function"
    },
    {
      "inputs": [
        {
          "internalType": "address",
          "name": "account",
          "type": "address"
        },
        {
          "internalType": "address",
          "name": "operator",
          "type": "address"
        }
      ],
      "name": "isApprovedForAll",
      "outputs": [
        {
          "internalType": "bool",
          "name": "",
          "type": "bool"
        }
      ],
      "stateMutability": "view",
      "type": "function"
    },
    {
      "inputs": [
        {
          "internalType": "uint256",
          "name": "",
          "type": "uint256"
        }
      ],
      "name": "lockedAmount",
      "outputs": [
        {
          "internalType": "uint256",
          "name": "",
          "type": "uint256"
        }
      ],
      "stateMutability": "view",
      "type": "function"
    },
    {
      "inputs": [],
      "name": "owner",
      "outputs": [
        {
          "internalType": "address",
          "name": "",
          "type": "address"
        }
      ],
      "stateMutability": "view",
      "type": "function"
    },
    {
      "inputs": [],
      "name": "pauseContract",
      "outputs": [],
      "stateMutability": "nonpayable",
      "type": "function"
    },
    {
      "inputs": [],
      "name": "paused",
      "outputs": [
        {
          "internalType": "bool",
          "name": "",
          "type": "bool"
        }
      ],
      "stateMutability": "view",
      "type": "function"
    },
    {
      "inputs": [
        {
          "internalType": "address",
          "name": "beneficiary",
          "type": "address"
        },
        {
          "internalType": "address",
          "name": "serviceProvider",
          "type": "address"
        },
        {
          "internalType": "uint256",
          "name": "currencyChoice",
          "type": "uint256"
        },
        {
          "internalType": "uint256",
          "name": "voucherId",
          "type": "uint256"
        }
      ],
      "name": "redeem",
      "outputs": [],
      "stateMutability": "nonpayable",
      "type": "function"
    },
    {
      "inputs": [
        {
          "internalType": "address[]",
          "name": "beneficiaries",
          "type": "address[]"
        }
      ],
      "name": "removeWhitelistedBeneficiaries",
      "outputs": [],
      "stateMutability": "nonpayable",
      "type": "function"
    },
    {
      "inputs": [],
      "name": "renounceOwnership",
      "outputs": [],
      "stateMutability": "nonpayable",
      "type": "function"
    },
    {
      "inputs": [
        {
          "internalType": "address",
          "name": "from",
          "type": "address"
        },
        {
          "internalType": "address",
          "name": "to",
          "type": "address"
        },
        {
          "internalType": "uint256[]",
          "name": "ids",
          "type": "uint256[]"
        },
        {
          "internalType": "uint256[]",
          "name": "values",
          "type": "uint256[]"
        },
        {
          "internalType": "bytes",
          "name": "data",
          "type": "bytes"
        }
      ],
      "name": "safeBatchTransferFrom",
      "outputs": [],
      "stateMutability": "nonpayable",
      "type": "function"
    },
    {
      "inputs": [
        {
          "internalType": "address",
          "name": "from",
          "type": "address"
        },
        {
          "internalType": "address",
          "name": "to",
          "type": "address"
        },
        {
          "internalType": "uint256",
          "name": "id",
          "type": "uint256"
        },
        {
          "internalType": "uint256",
          "name": "value",
          "type": "uint256"
        },
        {
          "internalType": "bytes",
          "name": "data",
          "type": "bytes"
        }
      ],
      "name": "safeTransferFrom",
      "outputs": [],
      "stateMutability": "nonpayable",
      "type": "function"
    },
    {
      "inputs": [
        {
          "internalType": "address",
          "name": "operator",
          "type": "address"
        },
        {
          "internalType": "bool",
          "name": "approved",
          "type": "bool"
        }
      ],
      "name": "setApprovalForAll",
      "outputs": [],
      "stateMutability": "nonpayable",
      "type": "function"
    },
    {
      "inputs": [
        {
          "internalType": "bytes4",
          "name": "interfaceId",
          "type": "bytes4"
        }
      ],
      "name": "supportsInterface",
      "outputs": [
        {
          "internalType": "bool",
          "name": "",
          "type": "bool"
        }
      ],
      "stateMutability": "view",
      "type": "function"
    },
    {
      "inputs": [],
      "name": "tokenId",
      "outputs": [
        {
          "internalType": "uint256",
          "name": "",
          "type": "uint256"
        }
      ],
      "stateMutability": "view",
      "type": "function"
    },
    {
      "inputs": [
        {
          "internalType": "address",
          "name": "newOwner",
          "type": "address"
        }
      ],
      "name": "transferOwnership",
      "outputs": [],
      "stateMutability": "nonpayable",
      "type": "function"
    },
    {
      "inputs": [],
      "name": "unpauseContract",
      "outputs": [],
      "stateMutability": "nonpayable",
      "type": "function"
    },
    {
      "inputs": [
        {
          "internalType": "string",
          "name": "newMetadataURI",
          "type": "string"
        }
      ],
      "name": "updateMetadataURI",
      "outputs": [],
      "stateMutability": "nonpayable",
      "type": "function"
    },
    {
      "inputs": [
        {
          "internalType": "uint256",
          "name": "_id",
          "type": "uint256"
        }
      ],
      "name": "uri",
      "outputs": [
        {
          "internalType": "string",
          "name": "",
          "type": "string"
        }
      ],
      "stateMutability": "view",
      "type": "function"
    },
    {
      "inputs": [
        {
          "internalType": "uint256",
          "name": "",
          "type": "uint256"
        }
      ],
      "name": "voucherCurrency",
      "outputs": [
        {
          "internalType": "uint256",
          "name": "",
          "type": "uint256"
        }
      ],
      "stateMutability": "view",
      "type": "function"
    },
    {
      "inputs": [
        {
          "internalType": "address[]",
          "name": "beneficiaries",
          "type": "address[]"
        }
      ],
      "name": "whitelistBeneficiaries",
      "outputs": [],
      "stateMutability": "nonpayable",
      "type": "function"
    },
    {
      "inputs": [
        {
          "internalType": "address",
          "name": "",
          "type": "address"
        }
      ],
      "name": "whitelistedBeneficiaries",
      "outputs": [
        {
          "internalType": "bool",
          "name": "",
          "type": "bool"
        }
      ],
      "stateMutability": "view",
      "type": "function"
    }
  ],
  "transactionHash": "0xe130cbe2ee03ddcbcca1e9ecff7994415e5f3ddd2159534546c23ed16a2e3e5b",
  "args": [
    "0x1742c163ADF759F6b9FD77DDb2B52cCd2b42f441",
    "0x29EBD1D189782E199dEab548D0fF75043C0c6945",
    "0xF664aA71b69fDD264185AAaA7f8B022C2e2bC2Ad",
    "0x54fD5099Aa827A161d322D41862bBDf52396a78a",
    "https://salmon-genuine-swordtail-78.mypinata.cloud/ipfs/bafkreifoi7zezae53pbxbzyifjrscdrdczphxbxmhdztjr5e5jszasiimi",
    "0x40F0d92d2369660fdD4a7fbE766136a368073FAd"
  ],
  "numDeployments": 2,
  "solcInputHash": "a14e57c4fb057f0333e8c2e371524ad8",
  "bytecode": "0x608060405260016009553480156200001657600080fd5b506040516200511e3803806200511e83398181016040528101906200003c919062000502565b80826200004f816200022f60201b60201c565b50600073ffffffffffffffffffffffffffffffffffffffff168173ffffffffffffffffffffffffffffffffffffffff1603620000c55760006040517f1e4fbdf7000000000000000000000000000000000000000000000000000000008152600401620000bc9190620005ce565b60405180910390fd5b620000d6816200024460201b60201c565b5060016004819055506000600560006101000a81548160ff02191690831515021790555085600560016101000a81548173ffffffffffffffffffffffffffffffffffffffff021916908373ffffffffffffffffffffffffffffffffffffffff16021790555084600660006101000a81548173ffffffffffffffffffffffffffffffffffffffff021916908373ffffffffffffffffffffffffffffffffffffffff16021790555083600760006101000a81548173ffffffffffffffffffffffffffffffffffffffff021916908373ffffffffffffffffffffffffffffffffffffffff16021790555082600860006101000a81548173ffffffffffffffffffffffffffffffffffffffff021916908373ffffffffffffffffffffffffffffffffffffffff16021790555081600a60006009548152602001908152602001600020908162000222919062000836565b505050505050506200091d565b806002908162000240919062000836565b5050565b6000600360009054906101000a900473ffffffffffffffffffffffffffffffffffffffff16905081600360006101000a81548173ffffffffffffffffffffffffffffffffffffffff021916908373ffffffffffffffffffffffffffffffffffffffff1602179055508173ffffffffffffffffffffffffffffffffffffffff168173ffffffffffffffffffffffffffffffffffffffff167f8be0079c531659141344cd1fd0a4f28419497f9722a3daafe3b4186f6b6457e060405160405180910390a35050565b6000604051905090565b600080fd5b600080fd5b600073ffffffffffffffffffffffffffffffffffffffff82169050919050565b60006200034b826200031e565b9050919050565b6200035d816200033e565b81146200036957600080fd5b50565b6000815190506200037d8162000352565b92915050565b600080fd5b600080fd5b6000601f19601f8301169050919050565b7f4e487b7100000000000000000000000000000000000000000000000000000000600052604160045260246000fd5b620003d8826200038d565b810181811067ffffffffffffffff82111715620003fa57620003f96200039e565b5b80604052505050565b60006200040f6200030a565b90506200041d8282620003cd565b919050565b600067ffffffffffffffff82111562000440576200043f6200039e565b5b6200044b826200038d565b9050602081019050919050565b60005b83811015620004785780820151818401526020810190506200045b565b60008484015250505050565b60006200049b620004958462000422565b62000403565b905082815260208101848484011115620004ba57620004b962000388565b5b620004c784828562000458565b509392505050565b600082601f830112620004e757620004e662000383565b5b8151620004f984826020860162000484565b91505092915050565b60008060008060008060c0878903121562000522576200052162000314565b5b60006200053289828a016200036c565b96505060206200054589828a016200036c565b95505060406200055889828a016200036c565b94505060606200056b89828a016200036c565b935050608087015167ffffffffffffffff8111156200058f576200058e62000319565b5b6200059d89828a01620004cf565b92505060a0620005b089828a016200036c565b9150509295509295509295565b620005c8816200033e565b82525050565b6000602082019050620005e56000830184620005bd565b92915050565b600081519050919050565b7f4e487b7100000000000000000000000000000000000000000000000000000000600052602260045260246000fd5b600060028204905060018216806200063e57607f821691505b602082108103620006545762000653620005f6565b5b50919050565b60008190508160005260206000209050919050565b60006020601f8301049050919050565b600082821b905092915050565b600060088302620006be7fffffffffffffffffffffffffffffffffffffffffffffffffffffffffffffffff826200067f565b620006ca86836200067f565b95508019841693508086168417925050509392505050565b6000819050919050565b6000819050919050565b600062000717620007116200070b84620006e2565b620006ec565b620006e2565b9050919050565b6000819050919050565b6200073383620006f6565b6200074b62000742826200071e565b8484546200068c565b825550505050565b600090565b6200076262000753565b6200076f81848462000728565b505050565b5b8181101562000797576200078b60008262000758565b60018101905062000775565b5050565b601f821115620007e657620007b0816200065a565b620007bb846200066f565b81016020851015620007cb578190505b620007e3620007da856200066f565b83018262000774565b50505b505050565b600082821c905092915050565b60006200080b60001984600802620007eb565b1980831691505092915050565b6000620008268383620007f8565b9150826002028217905092915050565b6200084182620005eb565b67ffffffffffffffff8111156200085d576200085c6200039e565b5b62000869825462000625565b620008768282856200079b565b600060209050601f831160018114620008ae576000841562000899578287015190505b620008a5858262000818565b86555062000915565b601f198416620008be866200065a565b60005b82811015620008e857848901518255600182019150602085019450602081019050620008c1565b8683101562000908578489015162000904601f891682620007f8565b8355505b6001600288020188555050505b505050505050565b6147f1806200092d6000396000f3fe608060405234801561001057600080fd5b50600436106101ce5760003560e01c8063715018a611610104578063b33712c5116100a2578063e985e9c511610071578063e985e9c514610507578063f242432a14610537578063f2fde38b14610553578063f6d7bf651461056f576101ce565b8063b33712c514610493578063c54e44eb1461049d578063cf1cb351146104bb578063e72ad097146104eb576101ce565b80638da5cb5b116100de5780638da5cb5b1461040d578063a22cb4651461042b578063ae5b947714610447578063aed5a8eb14610463576101ce565b8063715018a6146103b5578063809f6332146103bf57806389a30271146103ef576101ce565b8063439766ce116101715780634e1273f41161014b5780634e1273f41461032f57806353fd3e811461035f5780635c975abb1461037b578063664acec414610399576101ce565b8063439766ce146102d95780634be47418146102e35780634ddde4bd146102ff576101ce565b806317d70f7c116101ad57806317d70f7c1461026357806319eeaff4146102815780632348dd181461029f5780632eb2c2d6146102bd576101ce565b8062fdd58e146101d357806301ffc9a7146102035780630e89341c14610233575b600080fd5b6101ed60048036038101906101e89190612e10565b61058d565b6040516101fa9190612e5f565b60405180910390f35b61021d60048036038101906102189190612ed2565b6105e7565b60405161022a9190612f1a565b60405180910390f35b61024d60048036038101906102489190612f35565b6106c9565b60405161025a9190612ff2565b60405180910390f35b61026b61076e565b6040516102789190612e5f565b60405180910390f35b610289610774565b6040516102969190613073565b60405180910390f35b6102a761079a565b6040516102b49190612e5f565b60405180910390f35b6102d760048036038101906102d2919061328b565b61079f565b005b6102e1610847565b005b6102fd60048036038101906102f8919061335a565b610859565b005b61031960048036038101906103149190612f35565b610d7c565b6040516103269190612e5f565b60405180910390f35b61034960048036038101906103449190613484565b610d94565b60405161035691906135ba565b60405180910390f35b6103796004803603810190610374919061367d565b610ea3565b005b610383610f11565b6040516103909190612f1a565b60405180910390f35b6103b360048036038101906103ae91906136c6565b610f28565b005b6103bd61104e565b005b6103d960048036038101906103d4919061370f565b611062565b6040516103e69190612f1a565b60405180910390f35b6103f7611082565b6040516104049190613073565b60405180910390f35b6104156110a8565b604051610422919061374b565b60405180910390f35b61044560048036038101906104409190613792565b6110d2565b005b610461600480360381019061045c91906136c6565b6110e8565b005b61047d6004803603810190610478919061370f565b61120e565b60405161048a9190612e5f565b60405180910390f35b61049b611226565b005b6104a5611238565b6040516104b29190613073565b60405180910390f35b6104d560048036038101906104d09190612f35565b61125e565b6040516104e29190612e5f565b60405180910390f35b610505600480360381019061050091906137d2565b611276565b005b610521600480360381019061051c9190613841565b6119a1565b60405161052e9190612f1a565b60405180910390f35b610551600480360381019061054c9190613881565b611a35565b005b61056d6004803603810190610568919061370f565b611add565b005b610577611b63565b6040516105849190613073565b60405180910390f35b600080600083815260200190815260200160002060008473ffffffffffffffffffffffffffffffffffffffff1673ffffffffffffffffffffffffffffffffffffffff16815260200190815260200160002054905092915050565b60007fd9b67a26000000000000000000000000000000000000000000000000000000007bffffffffffffffffffffffffffffffffffffffffffffffffffffffff1916827bffffffffffffffffffffffffffffffffffffffffffffffffffffffff191614806106b257507f0e89341c000000000000000000000000000000000000000000000000000000007bffffffffffffffffffffffffffffffffffffffffffffffffffffffff1916827bffffffffffffffffffffffffffffffffffffffffffffffffffffffff1916145b806106c257506106c182611b89565b5b9050919050565b6060600a600083815260200190815260200160002080546106e990613947565b80601f016020809104026020016040519081016040528092919081815260200182805461071590613947565b80156107625780601f1061073757610100808354040283529160200191610762565b820191906000526020600020905b81548152906001019060200180831161074557829003601f168201915b50505050509050919050565b60095481565b600560019054906101000a900473ffffffffffffffffffffffffffffffffffffffff1681565b603281565b60006107a9611bf3565b90508073ffffffffffffffffffffffffffffffffffffffff168673ffffffffffffffffffffffffffffffffffffffff16141580156107ee57506107ec86826119a1565b155b156108325780866040517fe237d922000000000000000000000000000000000000000000000000000000008152600401610829929190613978565b60405180910390fd5b61083f8686868686611bfb565b505050505050565b61084f611cf3565b610857611d7a565b565b610861611ddd565b610869611e23565b600e60003373ffffffffffffffffffffffffffffffffffffffff1673ffffffffffffffffffffffffffffffffffffffff16815260200190815260200160002060009054906101000a900460ff166108f5576040517f08c379a00000000000000000000000000000000000000000000000000000000081526004016108ec906139ed565b60405180910390fd5b600073ffffffffffffffffffffffffffffffffffffffff168473ffffffffffffffffffffffffffffffffffffffff1603610964576040517f08c379a000000000000000000000000000000000000000000000000000000000815260040161095b90613a59565b60405180910390fd5b600073ffffffffffffffffffffffffffffffffffffffff168373ffffffffffffffffffffffffffffffffffffffff16036109d3576040517f08c379a00000000000000000000000000000000000000000000000000000000081526004016109ca90613ac5565b60405180910390fd5b8373ffffffffffffffffffffffffffffffffffffffff163373ffffffffffffffffffffffffffffffffffffffff1614610a41576040517f08c379a0000000000000000000000000000000000000000000000000000000008152600401610a3890613b57565b60405180910390fd5b6000610a4d858361058d565b11610a8d576040517f08c379a0000000000000000000000000000000000000000000000000000000008152600401610a8490613be9565b60405180910390fd5b6000600b600083815260200190815260200160002054905060008111610ae8576040517f08c379a0000000000000000000000000000000000000000000000000000000008152600401610adf90613c55565b60405180910390fd5b82600c60008481526020019081526020016000205414610b3d576040517f08c379a0000000000000000000000000000000000000000000000000000000008152600401610b3490613cc1565b60405180910390fd5b610b4985836001611e64565b60008303610ba357610b9e8482600560019054906101000a900473ffffffffffffffffffffffffffffffffffffffff1673ffffffffffffffffffffffffffffffffffffffff16611f0b9092919063ffffffff16565b610cef565b60018303610bfd57610bf88482600660009054906101000a900473ffffffffffffffffffffffffffffffffffffffff1673ffffffffffffffffffffffffffffffffffffffff16611f0b9092919063ffffffff16565b610cee565b60028303610c5757610c528482600760009054906101000a900473ffffffffffffffffffffffffffffffffffffffff1673ffffffffffffffffffffffffffffffffffffffff16611f0b9092919063ffffffff16565b610ced565b60038303610cb157610cac8482600860009054906101000a900473ffffffffffffffffffffffffffffffffffffffff1673ffffffffffffffffffffffffffffffffffffffff16611f0b9092919063ffffffff16565b610cec565b6040517f08c379a0000000000000000000000000000000000000000000000000000000008152600401610ce390613d2d565b60405180910390fd5b5b5b5b8373ffffffffffffffffffffffffffffffffffffffff168573ffffffffffffffffffffffffffffffffffffffff167f27d4634c833b7622a0acddbf7f746183625f105945e95c723ad1d5a9f2a0b6fc83604051610d4c9190612e5f565b60405180910390a36000600b60008481526020019081526020016000208190555050610d76611f8a565b50505050565b600c6020528060005260406000206000915090505481565b60608151835114610de057815183516040517f5b059991000000000000000000000000000000000000000000000000000000008152600401610dd7929190613d4d565b60405180910390fd5b6000835167ffffffffffffffff811115610dfd57610dfc613093565b5b604051908082528060200260200182016040528015610e2b5781602001602082028036833780820191505090505b50905060005b8451811015610e9857610e68610e508287611f9490919063ffffffff16565b610e638387611fa890919063ffffffff16565b61058d565b828281518110610e7b57610e7a613d76565b5b60200260200101818152505080610e9190613dd4565b9050610e31565b508091505092915050565b610eab611cf3565b80600a600060095481526020019081526020016000209081610ecd9190613fbe565b50610ed781611fbc565b7fefafb90526da1636e1335eac0151301742fb755d986954c613b90e891778ba3981604051610f069190612ff2565b60405180910390a150565b6000600560009054906101000a900460ff16905090565b610f30611cf3565b60005b815181101561104a57600073ffffffffffffffffffffffffffffffffffffffff16828281518110610f6757610f66613d76565b5b602002602001015173ffffffffffffffffffffffffffffffffffffffff1603610fc5576040517f08c379a0000000000000000000000000000000000000000000000000000000008152600401610fbc906140dc565b60405180910390fd5b6001600e6000848481518110610fde57610fdd613d76565b5b602002602001015173ffffffffffffffffffffffffffffffffffffffff1673ffffffffffffffffffffffffffffffffffffffff16815260200190815260200160002060006101000a81548160ff021916908315150217905550808061104290613dd4565b915050610f33565b5050565b611056611cf3565b6110606000611fcf565b565b600e6020528060005260406000206000915054906101000a900460ff1681565b600860009054906101000a900473ffffffffffffffffffffffffffffffffffffffff1681565b6000600360009054906101000a900473ffffffffffffffffffffffffffffffffffffffff16905090565b6110e46110dd611bf3565b8383612095565b5050565b6110f0611cf3565b60005b815181101561120a57600073ffffffffffffffffffffffffffffffffffffffff1682828151811061112757611126613d76565b5b602002602001015173ffffffffffffffffffffffffffffffffffffffff1603611185576040517f08c379a000000000000000000000000000000000000000000000000000000000815260040161117c906140dc565b60405180910390fd5b6000600e600084848151811061119e5761119d613d76565b5b602002602001015173ffffffffffffffffffffffffffffffffffffffff1673ffffffffffffffffffffffffffffffffffffffff16815260200190815260200160002060006101000a81548160ff021916908315150217905550808061120290613dd4565b9150506110f3565b5050565b600d6020528060005260406000206000915090505481565b61122e611cf3565b611236612205565b565b600760009054906101000a900473ffffffffffffffffffffffffffffffffffffffff1681565b600b6020528060005260406000206000915090505481565b61127e6110a8565b73ffffffffffffffffffffffffffffffffffffffff163373ffffffffffffffffffffffffffffffffffffffff16146112eb576040517f08c379a00000000000000000000000000000000000000000000000000000000081526004016112e29061416e565b60405180910390fd5b6112f3611e23565b6112fb611ddd565b60008351905060008111611344576040517f08c379a000000000000000000000000000000000000000000000000000000000815260040161133b906141da565b60405180910390fd5b6032811115611388576040517f08c379a000000000000000000000000000000000000000000000000000000000815260040161137f9061426c565b60405180910390fd5b600083116113cb576040517f08c379a00000000000000000000000000000000000000000000000000000000081526004016113c2906142fe565b60405180910390fd5b60008083036113fe57600560019054906101000a900473ffffffffffffffffffffffffffffffffffffffff1690506114d2565b6001830361143057600660009054906101000a900473ffffffffffffffffffffffffffffffffffffffff1690506114d1565b6002830361146257600760009054906101000a900473ffffffffffffffffffffffffffffffffffffffff1690506114d0565b6003830361149457600860009054906101000a900473ffffffffffffffffffffffffffffffffffffffff1690506114cf565b6040517f08c379a00000000000000000000000000000000000000000000000000000000081526004016114c690613d2d565b60405180910390fd5b5b5b5b81846114de919061431e565b8173ffffffffffffffffffffffffffffffffffffffff166370a08231336040518263ffffffff1660e01b8152600401611517919061374b565b602060405180830381865afa158015611534573d6000803e3d6000fd5b505050506040513d601f19601f820116820180604052508101906115589190614375565b1015611599576040517f08c379a0000000000000000000000000000000000000000000000000000000008152600401611590906143ee565b60405180910390fd5b81846115a5919061431e565b8173ffffffffffffffffffffffffffffffffffffffff1663dd62ed3e33306040518363ffffffff1660e01b81526004016115e0929190613978565b602060405180830381865afa1580156115fd573d6000803e3d6000fd5b505050506040513d601f19601f820116820180604052508101906116219190614375565b1015611662576040517f08c379a00000000000000000000000000000000000000000000000000000000081526004016116599061445a565b60405180910390fd5b60005b8281101561199157600086828151811061168257611681613d76565b5b60200260200101519050600073ffffffffffffffffffffffffffffffffffffffff168173ffffffffffffffffffffffffffffffffffffffff16036116fb576040517f08c379a00000000000000000000000000000000000000000000000000000000081526004016116f2906140dc565b60405180910390fd5b600e60008273ffffffffffffffffffffffffffffffffffffffff1673ffffffffffffffffffffffffffffffffffffffff16815260200190815260200160002060009054906101000a900460ff16611787576040517f08c379a000000000000000000000000000000000000000000000000000000000815260040161177e906144c6565b60405180910390fd5b60005b8281101561182d578173ffffffffffffffffffffffffffffffffffffffff168882815181106117bc576117bb613d76565b5b602002602001015173ffffffffffffffffffffffffffffffffffffffff160361181a576040517f08c379a000000000000000000000000000000000000000000000000000000000815260040161181190614532565b60405180910390fd5b808061182590613dd4565b91505061178a565b50600954600d60008373ffffffffffffffffffffffffffffffffffffffff1673ffffffffffffffffffffffffffffffffffffffff1681526020019081526020016000208190555061187e60006106c9565b600a60006009548152602001908152602001600020908161189f9190613fbe565b506118be81600954600160405180602001604052806000815250612268565b6009548173ffffffffffffffffffffffffffffffffffffffff167f4cc0a9c4a99ddc700de1af2c9f916a7cbfdb71f14801ccff94061ad1ef8a804060405160405180910390a36119313330888673ffffffffffffffffffffffffffffffffffffffff16612301909392919063ffffffff16565b85600b600060095481526020019081526020016000208190555084600c60006009548152602001908152602001600020819055506009600081548092919061197890613dd4565b919050555050808061198990613dd4565b915050611665565b50505061199c611f8a565b505050565b6000600160008473ffffffffffffffffffffffffffffffffffffffff1673ffffffffffffffffffffffffffffffffffffffff16815260200190815260200160002060008373ffffffffffffffffffffffffffffffffffffffff1673ffffffffffffffffffffffffffffffffffffffff16815260200190815260200160002060009054906101000a900460ff16905092915050565b6000611a3f611bf3565b90508073ffffffffffffffffffffffffffffffffffffffff168673ffffffffffffffffffffffffffffffffffffffff1614158015611a845750611a8286826119a1565b155b15611ac85780866040517fe237d922000000000000000000000000000000000000000000000000000000008152600401611abf929190613978565b60405180910390fd5b611ad58686868686612383565b505050505050565b611ae5611cf3565b600073ffffffffffffffffffffffffffffffffffffffff168173ffffffffffffffffffffffffffffffffffffffff1603611b575760006040517f1e4fbdf7000000000000000000000000000000000000000000000000000000008152600401611b4e919061374b565b60405180910390fd5b611b6081611fcf565b50565b600660009054906101000a900473ffffffffffffffffffffffffffffffffffffffff1681565b60007f01ffc9a7000000000000000000000000000000000000000000000000000000007bffffffffffffffffffffffffffffffffffffffffffffffffffffffff1916827bffffffffffffffffffffffffffffffffffffffffffffffffffffffff1916149050919050565b600033905090565b600073ffffffffffffffffffffffffffffffffffffffff168473ffffffffffffffffffffffffffffffffffffffff1603611c6d5760006040517f57f447ce000000000000000000000000000000000000000000000000000000008152600401611c64919061374b565b60405180910390fd5b600073ffffffffffffffffffffffffffffffffffffffff168573ffffffffffffffffffffffffffffffffffffffff1603611cdf5760006040517f01a83514000000000000000000000000000000000000000000000000000000008152600401611cd6919061374b565b60405180910390fd5b611cec858585858561248e565b5050505050565b611cfb611bf3565b73ffffffffffffffffffffffffffffffffffffffff16611d196110a8565b73ffffffffffffffffffffffffffffffffffffffff1614611d7857611d3c611bf3565b6040517f118cdaa7000000000000000000000000000000000000000000000000000000008152600401611d6f919061374b565b60405180910390fd5b565b611d82611e23565b6001600560006101000a81548160ff0219169083151502179055507f62e78cea01bee320cd4e420270b5ea74000d11b0c9f74754ebdbfc544b05a258611dc6611bf3565b604051611dd3919061374b565b60405180910390a1565b600260045403611e19576040517f3ee5aeb500000000000000000000000000000000000000000000000000000000815260040160405180910390fd5b6002600481905550565b611e2b610f11565b15611e62576040517fd93c066500000000000000000000000000000000000000000000000000000000815260040160405180910390fd5b565b600073ffffffffffffffffffffffffffffffffffffffff168373ffffffffffffffffffffffffffffffffffffffff1603611ed65760006040517f01a83514000000000000000000000000000000000000000000000000000000008152600401611ecd919061374b565b60405180910390fd5b600080611ee38484612540565b91509150611f0485600084846040518060200160405280600081525061248e565b5050505050565b611f85838473ffffffffffffffffffffffffffffffffffffffff1663a9059cbb8585604051602401611f3e929190614552565b604051602081830303815290604052915060e01b6020820180517bffffffffffffffffffffffffffffffffffffffffffffffffffffffff8381831617835250505050612570565b505050565b6001600481905550565b600060208202602084010151905092915050565b600060208202602084010151905092915050565b8060029081611fcb9190613fbe565b5050565b6000600360009054906101000a900473ffffffffffffffffffffffffffffffffffffffff16905081600360006101000a81548173ffffffffffffffffffffffffffffffffffffffff021916908373ffffffffffffffffffffffffffffffffffffffff1602179055508173ffffffffffffffffffffffffffffffffffffffff168173ffffffffffffffffffffffffffffffffffffffff167f8be0079c531659141344cd1fd0a4f28419497f9722a3daafe3b4186f6b6457e060405160405180910390a35050565b600073ffffffffffffffffffffffffffffffffffffffff168273ffffffffffffffffffffffffffffffffffffffff16036121075760006040517fced3e1000000000000000000000000000000000000000000000000000000000081526004016120fe919061374b565b60405180910390fd5b80600160008573ffffffffffffffffffffffffffffffffffffffff1673ffffffffffffffffffffffffffffffffffffffff16815260200190815260200160002060008473ffffffffffffffffffffffffffffffffffffffff1673ffffffffffffffffffffffffffffffffffffffff16815260200190815260200160002060006101000a81548160ff0219169083151502179055508173ffffffffffffffffffffffffffffffffffffffff168373ffffffffffffffffffffffffffffffffffffffff167f17307eab39ab6107e8899845ad3d59bd9653f200f220920489ca2b5937696c31836040516121f89190612f1a565b60405180910390a3505050565b61220d612612565b6000600560006101000a81548160ff0219169083151502179055507f5db9ee0a495bf2e6ff9c91a7834c1ba4fdd244a5e8aa4e537bd38aeae4b073aa612251611bf3565b60405161225e919061374b565b60405180910390a1565b600073ffffffffffffffffffffffffffffffffffffffff168473ffffffffffffffffffffffffffffffffffffffff16036122da5760006040517f57f447ce0000000000000000000000000000000000000000000000000000000081526004016122d1919061374b565b60405180910390fd5b6000806122e78585612540565b915091506122f960008784848761248e565b505050505050565b61237d848573ffffffffffffffffffffffffffffffffffffffff166323b872dd8686866040516024016123369392919061457b565b604051602081830303815290604052915060e01b6020820180517bffffffffffffffffffffffffffffffffffffffffffffffffffffffff8381831617835250505050612570565b50505050565b600073ffffffffffffffffffffffffffffffffffffffff168473ffffffffffffffffffffffffffffffffffffffff16036123f55760006040517f57f447ce0000000000000000000000000000000000000000000000000000000081526004016123ec919061374b565b60405180910390fd5b600073ffffffffffffffffffffffffffffffffffffffff168573ffffffffffffffffffffffffffffffffffffffff16036124675760006040517f01a8351400000000000000000000000000000000000000000000000000000000815260040161245e919061374b565b60405180910390fd5b6000806124748585612540565b91509150612485878784848761248e565b50505050505050565b61249a85858585612652565b600073ffffffffffffffffffffffffffffffffffffffff168473ffffffffffffffffffffffffffffffffffffffff16146125395760006124d8611bf3565b905060018451036125285760006124f9600086611fa890919063ffffffff16565b90506000612511600086611fa890919063ffffffff16565b9050612521838989858589612a00565b5050612537565b612536818787878787612bb4565b5b505b5050505050565b60608060405191506001825283602083015260408201905060018152826020820152604081016040529250929050565b600080602060008451602086016000885af180612593576040513d6000823e3d81fd5b3d9250600051915050600082146125ae5760018114156125ca565b60008473ffffffffffffffffffffffffffffffffffffffff163b145b1561260c57836040517f5274afe7000000000000000000000000000000000000000000000000000000008152600401612603919061374b565b60405180910390fd5b50505050565b61261a610f11565b612650576040517f8dfc202b00000000000000000000000000000000000000000000000000000000815260040160405180910390fd5b565b805182511461269c57815181516040517f5b059991000000000000000000000000000000000000000000000000000000008152600401612693929190613d4d565b60405180910390fd5b60006126a6611bf3565b905060005b83518110156128bb5760006126c98286611fa890919063ffffffff16565b905060006126e08386611fa890919063ffffffff16565b9050600073ffffffffffffffffffffffffffffffffffffffff168873ffffffffffffffffffffffffffffffffffffffff161461280d57600080600084815260200190815260200160002060008a73ffffffffffffffffffffffffffffffffffffffff1673ffffffffffffffffffffffffffffffffffffffff168152602001908152602001600020549050818110156127b557888183856040517f03dee4c50000000000000000000000000000000000000000000000000000000081526004016127ac94939291906145b2565b60405180910390fd5b81810360008085815260200190815260200160002060008b73ffffffffffffffffffffffffffffffffffffffff1673ffffffffffffffffffffffffffffffffffffffff16815260200190815260200160002081905550505b600073ffffffffffffffffffffffffffffffffffffffff168773ffffffffffffffffffffffffffffffffffffffff16146128a8578060008084815260200190815260200160002060008973ffffffffffffffffffffffffffffffffffffffff1673ffffffffffffffffffffffffffffffffffffffff16815260200190815260200160002060008282546128a091906145f7565b925050819055505b5050806128b490613dd4565b90506126ab565b50600183510361297a5760006128db600085611fa890919063ffffffff16565b905060006128f3600085611fa890919063ffffffff16565b90508573ffffffffffffffffffffffffffffffffffffffff168773ffffffffffffffffffffffffffffffffffffffff168473ffffffffffffffffffffffffffffffffffffffff167fc3d58168c5ae7397731d063d5bbf3d657854427343f4c083240f7aacaa2d0f62858560405161296b929190613d4d565b60405180910390a450506129f9565b8373ffffffffffffffffffffffffffffffffffffffff168573ffffffffffffffffffffffffffffffffffffffff168273ffffffffffffffffffffffffffffffffffffffff167f4a39dc06d4c0dbc64b70af90fd698a233a518aa5d07e595d983b8c0526c8f7fb86866040516129f092919061462b565b60405180910390a45b5050505050565b60008473ffffffffffffffffffffffffffffffffffffffff163b1115612bac578373ffffffffffffffffffffffffffffffffffffffff1663f23a6e6187878686866040518663ffffffff1660e01b8152600401612a619594939291906146b7565b6020604051808303816000875af1925050508015612a9d57506040513d601f19601f82011682018060405250810190612a9a9190614726565b60015b612b21573d8060008114612acd576040519150601f19603f3d011682016040523d82523d6000602084013e612ad2565b606091505b506000815103612b1957846040517f57f447ce000000000000000000000000000000000000000000000000000000008152600401612b10919061374b565b60405180910390fd5b805181602001fd5b63f23a6e6160e01b7bffffffffffffffffffffffffffffffffffffffffffffffffffffffff1916817bffffffffffffffffffffffffffffffffffffffffffffffffffffffff191614612baa57846040517f57f447ce000000000000000000000000000000000000000000000000000000008152600401612ba1919061374b565b60405180910390fd5b505b505050505050565b60008473ffffffffffffffffffffffffffffffffffffffff163b1115612d60578373ffffffffffffffffffffffffffffffffffffffff1663bc197c8187878686866040518663ffffffff1660e01b8152600401612c15959493929190614753565b6020604051808303816000875af1925050508015612c5157506040513d601f19601f82011682018060405250810190612c4e9190614726565b60015b612cd5573d8060008114612c81576040519150601f19603f3d011682016040523d82523d6000602084013e612c86565b606091505b506000815103612ccd57846040517f57f447ce000000000000000000000000000000000000000000000000000000008152600401612cc4919061374b565b60405180910390fd5b805181602001fd5b63bc197c8160e01b7bffffffffffffffffffffffffffffffffffffffffffffffffffffffff1916817bffffffffffffffffffffffffffffffffffffffffffffffffffffffff191614612d5e57846040517f57f447ce000000000000000000000000000000000000000000000000000000008152600401612d55919061374b565b60405180910390fd5b505b505050505050565b6000604051905090565b600080fd5b600080fd5b600073ffffffffffffffffffffffffffffffffffffffff82169050919050565b6000612da782612d7c565b9050919050565b612db781612d9c565b8114612dc257600080fd5b50565b600081359050612dd481612dae565b92915050565b6000819050919050565b612ded81612dda565b8114612df857600080fd5b50565b600081359050612e0a81612de4565b92915050565b60008060408385031215612e2757612e26612d72565b5b6000612e3585828601612dc5565b9250506020612e4685828601612dfb565b9150509250929050565b612e5981612dda565b82525050565b6000602082019050612e746000830184612e50565b92915050565b60007fffffffff0000000000000000000000000000000000000000000000000000000082169050919050565b612eaf81612e7a565b8114612eba57600080fd5b50565b600081359050612ecc81612ea6565b92915050565b600060208284031215612ee857612ee7612d72565b5b6000612ef684828501612ebd565b91505092915050565b60008115159050919050565b612f1481612eff565b82525050565b6000602082019050612f2f6000830184612f0b565b92915050565b600060208284031215612f4b57612f4a612d72565b5b6000612f5984828501612dfb565b91505092915050565b600081519050919050565b600082825260208201905092915050565b60005b83811015612f9c578082015181840152602081019050612f81565b60008484015250505050565b6000601f19601f8301169050919050565b6000612fc482612f62565b612fce8185612f6d565b9350612fde818560208601612f7e565b612fe781612fa8565b840191505092915050565b6000602082019050818103600083015261300c8184612fb9565b905092915050565b6000819050919050565b600061303961303461302f84612d7c565b613014565b612d7c565b9050919050565b600061304b8261301e565b9050919050565b600061305d82613040565b9050919050565b61306d81613052565b82525050565b60006020820190506130886000830184613064565b92915050565b600080fd5b7f4e487b7100000000000000000000000000000000000000000000000000000000600052604160045260246000fd5b6130cb82612fa8565b810181811067ffffffffffffffff821117156130ea576130e9613093565b5b80604052505050565b60006130fd612d68565b905061310982826130c2565b919050565b600067ffffffffffffffff82111561312957613128613093565b5b602082029050602081019050919050565b600080fd5b600061315261314d8461310e565b6130f3565b905080838252602082019050602084028301858111156131755761317461313a565b5b835b8181101561319e578061318a8882612dfb565b845260208401935050602081019050613177565b5050509392505050565b600082601f8301126131bd576131bc61308e565b5b81356131cd84826020860161313f565b91505092915050565b600080fd5b600067ffffffffffffffff8211156131f6576131f5613093565b5b6131ff82612fa8565b9050602081019050919050565b82818337600083830152505050565b600061322e613229846131db565b6130f3565b90508281526020810184848401111561324a576132496131d6565b5b61325584828561320c565b509392505050565b600082601f8301126132725761327161308e565b5b813561328284826020860161321b565b91505092915050565b600080600080600060a086880312156132a7576132a6612d72565b5b60006132b588828901612dc5565b95505060206132c688828901612dc5565b945050604086013567ffffffffffffffff8111156132e7576132e6612d77565b5b6132f3888289016131a8565b935050606086013567ffffffffffffffff81111561331457613313612d77565b5b613320888289016131a8565b925050608086013567ffffffffffffffff81111561334157613340612d77565b5b61334d8882890161325d565b9150509295509295909350565b6000806000806080858703121561337457613373612d72565b5b600061338287828801612dc5565b945050602061339387828801612dc5565b93505060406133a487828801612dfb565b92505060606133b587828801612dfb565b91505092959194509250565b600067ffffffffffffffff8211156133dc576133db613093565b5b602082029050602081019050919050565b60006134006133fb846133c1565b6130f3565b905080838252602082019050602084028301858111156134235761342261313a565b5b835b8181101561344c57806134388882612dc5565b845260208401935050602081019050613425565b5050509392505050565b600082601f83011261346b5761346a61308e565b5b813561347b8482602086016133ed565b91505092915050565b6000806040838503121561349b5761349a612d72565b5b600083013567ffffffffffffffff8111156134b9576134b8612d77565b5b6134c585828601613456565b925050602083013567ffffffffffffffff8111156134e6576134e5612d77565b5b6134f2858286016131a8565b9150509250929050565b600081519050919050565b600082825260208201905092915050565b6000819050602082019050919050565b61353181612dda565b82525050565b60006135438383613528565b60208301905092915050565b6000602082019050919050565b6000613567826134fc565b6135718185613507565b935061357c83613518565b8060005b838110156135ad5781516135948882613537565b975061359f8361354f565b925050600181019050613580565b5085935050505092915050565b600060208201905081810360008301526135d4818461355c565b905092915050565b600067ffffffffffffffff8211156135f7576135f6613093565b5b61360082612fa8565b9050602081019050919050565b600061362061361b846135dc565b6130f3565b90508281526020810184848401111561363c5761363b6131d6565b5b61364784828561320c565b509392505050565b600082601f8301126136645761366361308e565b5b813561367484826020860161360d565b91505092915050565b60006020828403121561369357613692612d72565b5b600082013567ffffffffffffffff8111156136b1576136b0612d77565b5b6136bd8482850161364f565b91505092915050565b6000602082840312156136dc576136db612d72565b5b600082013567ffffffffffffffff8111156136fa576136f9612d77565b5b61370684828501613456565b91505092915050565b60006020828403121561372557613724612d72565b5b600061373384828501612dc5565b91505092915050565b61374581612d9c565b82525050565b6000602082019050613760600083018461373c565b92915050565b61376f81612eff565b811461377a57600080fd5b50565b60008135905061378c81613766565b92915050565b600080604083850312156137a9576137a8612d72565b5b60006137b785828601612dc5565b92505060206137c88582860161377d565b9150509250929050565b6000806000606084860312156137eb576137ea612d72565b5b600084013567ffffffffffffffff81111561380957613808612d77565b5b61381586828701613456565b935050602061382686828701612dfb565b925050604061383786828701612dfb565b9150509250925092565b6000806040838503121561385857613857612d72565b5b600061386685828601612dc5565b925050602061387785828601612dc5565b9150509250929050565b600080600080600060a0868803121561389d5761389c612d72565b5b60006138ab88828901612dc5565b95505060206138bc88828901612dc5565b94505060406138cd88828901612dfb565b93505060606138de88828901612dfb565b925050608086013567ffffffffffffffff8111156138ff576138fe612d77565b5b61390b8882890161325d565b9150509295509295909350565b7f4e487b7100000000000000000000000000000000000000000000000000000000600052602260045260246000fd5b6000600282049050600182168061395f57607f821691505b60208210810361397257613971613918565b5b50919050565b600060408201905061398d600083018561373c565b61399a602083018461373c565b9392505050565b7f4e6f742077686974656c69737465640000000000000000000000000000000000600082015250565b60006139d7600f83612f6d565b91506139e2826139a1565b602082019050919050565b60006020820190508181036000830152613a06816139ca565b9050919050565b7f496e76616c69642062656e656669636961727920616464726573730000000000600082015250565b6000613a43601b83612f6d565b9150613a4e82613a0d565b602082019050919050565b60006020820190508181036000830152613a7281613a36565b9050919050565b7f496e76616c696420736572766963652070726f76696465722061646472657373600082015250565b6000613aaf602083612f6d565b9150613aba82613a79565b602082019050919050565b60006020820190508181036000830152613ade81613aa2565b9050919050565b7f4f6e6c792062656e65666963696172792063616e2072656465656d207468656960008201527f7220766f75636865720000000000000000000000000000000000000000000000602082015250565b6000613b41602983612f6d565b9150613b4c82613ae5565b604082019050919050565b60006020820190508181036000830152613b7081613b34565b9050919050565b7f42656e656669636961727920646f6573206e6f74206f776e2074686973204e4660008201527f5400000000000000000000000000000000000000000000000000000000000000602082015250565b6000613bd3602183612f6d565b9150613bde82613b77565b604082019050919050565b60006020820190508181036000830152613c0281613bc6565b9050919050565b7f4e6f206c6f636b656420616d6f756e7420617661696c61626c65000000000000600082015250565b6000613c3f601a83612f6d565b9150613c4a82613c09565b602082019050919050565b60006020820190508181036000830152613c6e81613c32565b9050919050565b7f43757272656e63792063686f696365206d69736d617463680000000000000000600082015250565b6000613cab601883612f6d565b9150613cb682613c75565b602082019050919050565b60006020820190508181036000830152613cda81613c9e565b9050919050565b7f496e76616c69642063757272656e63792063686f696365000000000000000000600082015250565b6000613d17601783612f6d565b9150613d2282613ce1565b602082019050919050565b60006020820190508181036000830152613d4681613d0a565b9050919050565b6000604082019050613d626000830185612e50565b613d6f6020830184612e50565b9392505050565b7f4e487b7100000000000000000000000000000000000000000000000000000000600052603260045260246000fd5b7f4e487b7100000000000000000000000000000000000000000000000000000000600052601160045260246000fd5b6000613ddf82612dda565b91507fffffffffffffffffffffffffffffffffffffffffffffffffffffffffffffffff8203613e1157613e10613da5565b5b600182019050919050565b60008190508160005260206000209050919050565b60006020601f8301049050919050565b600082821b905092915050565b600060088302613e7e7fffffffffffffffffffffffffffffffffffffffffffffffffffffffffffffffff82613e41565b613e888683613e41565b95508019841693508086168417925050509392505050565b6000613ebb613eb6613eb184612dda565b613014565b612dda565b9050919050565b6000819050919050565b613ed583613ea0565b613ee9613ee182613ec2565b848454613e4e565b825550505050565b600090565b613efe613ef1565b613f09818484613ecc565b505050565b5b81811015613f2d57613f22600082613ef6565b600181019050613f0f565b5050565b601f821115613f7257613f4381613e1c565b613f4c84613e31565b81016020851015613f5b578190505b613f6f613f6785613e31565b830182613f0e565b50505b505050565b600082821c905092915050565b6000613f9560001984600802613f77565b1980831691505092915050565b6000613fae8383613f84565b9150826002028217905092915050565b613fc782612f62565b67ffffffffffffffff811115613fe057613fdf613093565b5b613fea8254613947565b613ff5828285613f31565b600060209050601f8311600181146140285760008415614016578287015190505b6140208582613fa2565b865550614088565b601f19841661403686613e1c565b60005b8281101561405e57848901518255600182019150602085019450602081019050614039565b8683101561407b5784890151614077601f891682613f84565b8355505b6001600288020188555050505b505050505050565b7f5a65726f2061646472657373206e6f7420616c6c6f7765640000000000000000600082015250565b60006140c6601883612f6d565b91506140d182614090565b602082019050919050565b600060208201905081810360008301526140f5816140b9565b9050919050565b7f4f6e6c792061646d696e2063616e20706572666f726d2074686973206163746960008201527f6f6e000000000000000000000000000000000000000000000000000000000000602082015250565b6000614158602283612f6d565b9150614163826140fc565b604082019050919050565b600060208201905081810360008301526141878161414b565b9050919050565b7f42656e65666963696172696573206c69737420697320656d7074790000000000600082015250565b60006141c4601b83612f6d565b91506141cf8261418e565b602082019050919050565b600060208201905081810360008301526141f3816141b7565b9050919050565b7f45786365656473204d6178696d756d2042656e6566696369617269657328353060008201527f2900000000000000000000000000000000000000000000000000000000000000602082015250565b6000614256602183612f6d565b9150614261826141fa565b604082019050919050565b6000602082019050818103600083015261428581614249565b9050919050565b7f446f6e6174696f6e20616d6f756e74206d75737420626520677265617465722060008201527f7468616e207a65726f0000000000000000000000000000000000000000000000602082015250565b60006142e8602983612f6d565b91506142f38261428c565b604082019050919050565b60006020820190508181036000830152614317816142db565b9050919050565b600061432982612dda565b915061433483612dda565b925082820261434281612dda565b9150828204841483151761435957614358613da5565b5b5092915050565b60008151905061436f81612de4565b92915050565b60006020828403121561438b5761438a612d72565b5b600061439984828501614360565b91505092915050565b7f496e73756666696369656e742063757272656e63792062616c616e6365000000600082015250565b60006143d8601d83612f6d565b91506143e3826143a2565b602082019050919050565b60006020820190508181036000830152614407816143cb565b9050919050565b7f496e73756666696369656e7420616c6c6f77616e636500000000000000000000600082015250565b6000614444601683612f6d565b915061444f8261440e565b602082019050919050565b6000602082019050818103600083015261447381614437565b9050919050565b7f42656e6566696369617279206e6f742077686974656c69737465640000000000600082015250565b60006144b0601b83612f6d565b91506144bb8261447a565b602082019050919050565b600060208201905081810360008301526144df816144a3565b9050919050565b7f4475706c69636174652061646472657373206e6f7420616c6c6f776564000000600082015250565b600061451c601d83612f6d565b9150614527826144e6565b602082019050919050565b6000602082019050818103600083015261454b8161450f565b9050919050565b6000604082019050614567600083018561373c565b6145746020830184612e50565b9392505050565b6000606082019050614590600083018661373c565b61459d602083018561373c565b6145aa6040830184612e50565b949350505050565b60006080820190506145c7600083018761373c565b6145d46020830186612e50565b6145e16040830185612e50565b6145ee6060830184612e50565b95945050505050565b600061460282612dda565b915061460d83612dda565b925082820190508082111561462557614624613da5565b5b92915050565b60006040820190508181036000830152614645818561355c565b90508181036020830152614659818461355c565b90509392505050565b600081519050919050565b600082825260208201905092915050565b600061468982614662565b614693818561466d565b93506146a3818560208601612f7e565b6146ac81612fa8565b840191505092915050565b600060a0820190506146cc600083018861373c565b6146d9602083018761373c565b6146e66040830186612e50565b6146f36060830185612e50565b8181036080830152614705818461467e565b90509695505050505050565b60008151905061472081612ea6565b92915050565b60006020828403121561473c5761473b612d72565b5b600061474a84828501614711565b91505092915050565b600060a082019050614768600083018861373c565b614775602083018761373c565b8181036040830152614787818661355c565b9050818103606083015261479b818561355c565b905081810360808301526147af818461467e565b9050969550505050505056fea2646970667358221220efd9eac0ab40584335f849c483b7a58107b5ee9b5df10701bae5235d4c14855f64736f6c63430008140033",
  "devdoc": {
    "errors": {
      "ERC1155InsufficientBalance(address,uint256,uint256,uint256)": [
        {
          "details": "Indicates an error related to the current `balance` of a `sender`. Used in transfers.",
          "params": {
            "balance": "Current balance for the interacting account.",
            "needed": "Minimum amount required to perform a transfer.",
            "sender": "Address whose tokens are being transferred.",
            "tokenId": "Identifier number of a token."
          }
        }
      ],
      "ERC1155InvalidApprover(address)": [
        {
          "details": "Indicates a failure with the `approver` of a token to be approved. Used in approvals.",
          "params": {
            "approver": "Address initiating an approval operation."
          }
        }
      ],
      "ERC1155InvalidArrayLength(uint256,uint256)": [
        {
          "details": "Indicates an array length mismatch between ids and values in a safeBatchTransferFrom operation. Used in batch transfers.",
          "params": {
            "idsLength": "Length of the array of token identifiers",
            "valuesLength": "Length of the array of token amounts"
          }
        }
      ],
      "ERC1155InvalidOperator(address)": [
        {
          "details": "Indicates a failure with the `operator` to be approved. Used in approvals.",
          "params": {
            "operator": "Address that may be allowed to operate on tokens without being their owner."
          }
        }
      ],
      "ERC1155InvalidReceiver(address)": [
        {
          "details": "Indicates a failure with the token `receiver`. Used in transfers.",
          "params": {
            "receiver": "Address to which tokens are being transferred."
          }
        }
      ],
      "ERC1155InvalidSender(address)": [
        {
          "details": "Indicates a failure with the token `sender`. Used in transfers.",
          "params": {
            "sender": "Address whose tokens are being transferred."
          }
        }
      ],
      "ERC1155MissingApprovalForAll(address,address)": [
        {
          "details": "Indicates a failure with the `operator`s approval. Used in transfers.",
          "params": {
            "operator": "Address that may be allowed to operate on tokens without being their owner.",
            "owner": "Address of the current owner of a token."
          }
        }
      ],
      "EnforcedPause()": [
        {
          "details": "The operation failed because the contract is paused."
        }
      ],
      "ExpectedPause()": [
        {
          "details": "The operation failed because the contract is not paused."
        }
      ],
      "OwnableInvalidOwner(address)": [
        {
          "details": "The owner is not a valid owner account. (eg. `address(0)`)"
        }
      ],
      "OwnableUnauthorizedAccount(address)": [
        {
          "details": "The caller account is not authorized to perform an operation."
        }
      ],
      "ReentrancyGuardReentrantCall()": [
        {
          "details": "Unauthorized reentrant call."
        }
      ],
      "SafeERC20FailedOperation(address)": [
        {
          "details": "An operation with an ERC-20 token failed."
        }
      ]
    },
    "events": {
      "ApprovalForAll(address,address,bool)": {
        "details": "Emitted when `account` grants or revokes permission to `operator` to transfer their tokens, according to `approved`."
      },
      "Paused(address)": {
        "details": "Emitted when the pause is triggered by `account`."
      },
      "TransferBatch(address,address,address,uint256[],uint256[])": {
        "details": "Equivalent to multiple {TransferSingle} events, where `operator`, `from` and `to` are the same for all transfers."
      },
      "TransferSingle(address,address,address,uint256,uint256)": {
        "details": "Emitted when `value` amount of tokens of type `id` are transferred from `from` to `to` by `operator`."
      },
      "URI(string,uint256)": {
        "details": "Emitted when the URI for token type `id` changes to `value`, if it is a non-programmatic URI. If an {URI} event was emitted for `id`, the standard https://eips.ethereum.org/EIPS/eip-1155#metadata-extensions[guarantees] that `value` will equal the value returned by {IERC1155MetadataURI-uri}."
      },
      "Unpaused(address)": {
        "details": "Emitted when the pause is lifted by `account`."
      }
    },
    "kind": "dev",
    "methods": {
      "balanceOf(address,uint256)": {
        "details": "See {IERC1155-balanceOf}."
      },
      "balanceOfBatch(address[],uint256[])": {
        "details": "See {IERC1155-balanceOfBatch}. Requirements: - `accounts` and `ids` must have the same length."
      },
      "isApprovedForAll(address,address)": {
        "details": "See {IERC1155-isApprovedForAll}."
      },
      "owner()": {
        "details": "Returns the address of the current owner."
      },
      "paused()": {
        "details": "Returns true if the contract is paused, and false otherwise."
      },
      "renounceOwnership()": {
        "details": "Leaves the contract without owner. It will not be possible to call `onlyOwner` functions. Can only be called by the current owner. NOTE: Renouncing ownership will leave the contract without an owner, thereby disabling any functionality that is only available to the owner."
      },
      "safeBatchTransferFrom(address,address,uint256[],uint256[],bytes)": {
        "details": "See {IERC1155-safeBatchTransferFrom}."
      },
      "safeTransferFrom(address,address,uint256,uint256,bytes)": {
        "details": "See {IERC1155-safeTransferFrom}."
      },
      "setApprovalForAll(address,bool)": {
        "details": "See {IERC1155-setApprovalForAll}."
      },
      "supportsInterface(bytes4)": {
        "details": "See {IERC165-supportsInterface}."
      },
      "transferOwnership(address)": {
        "details": "Transfers ownership of the contract to a new account (`newOwner`). Can only be called by the current owner."
      }
    },
    "title": "ImpactoMoney: A contract that is used for minting and redeeming vouchers",
    "version": 1
  },
  "userdoc": {
    "kind": "user",
    "methods": {},
    "version": 1
  },
  "storageLayout": {
    "storage": [
      {
        "astId": 416,
        "contract": "contracts/ImpactoMoney.sol:ImpactoMoney",
        "label": "_balances",
        "offset": 0,
        "slot": "0",
        "type": "t_mapping(t_uint256,t_mapping(t_address,t_uint256))"
      },
      {
        "astId": 422,
        "contract": "contracts/ImpactoMoney.sol:ImpactoMoney",
        "label": "_operatorApprovals",
        "offset": 0,
        "slot": "1",
        "type": "t_mapping(t_address,t_mapping(t_address,t_bool))"
      },
      {
        "astId": 424,
        "contract": "contracts/ImpactoMoney.sol:ImpactoMoney",
        "label": "_uri",
        "offset": 0,
        "slot": "2",
        "type": "t_string_storage"
      },
      {
        "astId": 8,
        "contract": "contracts/ImpactoMoney.sol:ImpactoMoney",
        "label": "_owner",
        "offset": 0,
        "slot": "3",
        "type": "t_address"
      },
      {
        "astId": 4057,
        "contract": "contracts/ImpactoMoney.sol:ImpactoMoney",
        "label": "_status",
        "offset": 0,
        "slot": "4",
        "type": "t_uint256"
      },
      {
        "astId": 3938,
        "contract": "contracts/ImpactoMoney.sol:ImpactoMoney",
        "label": "_paused",
        "offset": 0,
        "slot": "5",
        "type": "t_bool"
      },
      {
        "astId": 7804,
        "contract": "contracts/ImpactoMoney.sol:ImpactoMoney",
        "label": "UAUSD",
        "offset": 1,
        "slot": "5",
        "type": "t_contract(IERC20)2219"
      },
      {
        "astId": 7807,
        "contract": "contracts/ImpactoMoney.sol:ImpactoMoney",
        "label": "PayPalUSD",
        "offset": 0,
        "slot": "6",
        "type": "t_contract(IERC20)2219"
      },
      {
        "astId": 7810,
        "contract": "contracts/ImpactoMoney.sol:ImpactoMoney",
        "label": "USDT",
        "offset": 0,
        "slot": "7",
        "type": "t_contract(IERC20)2219"
      },
      {
        "astId": 7813,
        "contract": "contracts/ImpactoMoney.sol:ImpactoMoney",
        "label": "USDC",
        "offset": 0,
        "slot": "8",
        "type": "t_contract(IERC20)2219"
      },
      {
        "astId": 7816,
        "contract": "contracts/ImpactoMoney.sol:ImpactoMoney",
        "label": "tokenId",
        "offset": 0,
        "slot": "9",
        "type": "t_uint256"
      },
      {
        "astId": 7820,
        "contract": "contracts/ImpactoMoney.sol:ImpactoMoney",
        "label": "tokenURIs",
        "offset": 0,
        "slot": "10",
        "type": "t_mapping(t_uint256,t_string_storage)"
      },
      {
        "astId": 7824,
        "contract": "contracts/ImpactoMoney.sol:ImpactoMoney",
        "label": "lockedAmount",
        "offset": 0,
        "slot": "11",
        "type": "t_mapping(t_uint256,t_uint256)"
      },
      {
        "astId": 7828,
        "contract": "contracts/ImpactoMoney.sol:ImpactoMoney",
        "label": "voucherCurrency",
        "offset": 0,
        "slot": "12",
        "type": "t_mapping(t_uint256,t_uint256)"
      },
      {
        "astId": 7832,
        "contract": "contracts/ImpactoMoney.sol:ImpactoMoney",
        "label": "beneficiaryTokenId",
        "offset": 0,
        "slot": "13",
        "type": "t_mapping(t_address,t_uint256)"
      },
      {
        "astId": 7836,
        "contract": "contracts/ImpactoMoney.sol:ImpactoMoney",
        "label": "whitelistedBeneficiaries",
        "offset": 0,
        "slot": "14",
        "type": "t_mapping(t_address,t_bool)"
      }
    ],
    "types": {
      "t_address": {
        "encoding": "inplace",
        "label": "address",
        "numberOfBytes": "20"
      },
      "t_bool": {
        "encoding": "inplace",
        "label": "bool",
        "numberOfBytes": "1"
      },
      "t_contract(IERC20)2219": {
        "encoding": "inplace",
        "label": "contract IERC20",
        "numberOfBytes": "20"
      },
      "t_mapping(t_address,t_bool)": {
        "encoding": "mapping",
        "key": "t_address",
        "label": "mapping(address => bool)",
        "numberOfBytes": "32",
        "value": "t_bool"
      },
      "t_mapping(t_address,t_mapping(t_address,t_bool))": {
        "encoding": "mapping",
        "key": "t_address",
        "label": "mapping(address => mapping(address => bool))",
        "numberOfBytes": "32",
        "value": "t_mapping(t_address,t_bool)"
      },
      "t_mapping(t_address,t_uint256)": {
        "encoding": "mapping",
        "key": "t_address",
        "label": "mapping(address => uint256)",
        "numberOfBytes": "32",
        "value": "t_uint256"
      },
      "t_mapping(t_uint256,t_mapping(t_address,t_uint256))": {
        "encoding": "mapping",
        "key": "t_uint256",
        "label": "mapping(uint256 => mapping(address => uint256))",
        "numberOfBytes": "32",
        "value": "t_mapping(t_address,t_uint256)"
      },
      "t_mapping(t_uint256,t_string_storage)": {
        "encoding": "mapping",
        "key": "t_uint256",
        "label": "mapping(uint256 => string)",
        "numberOfBytes": "32",
        "value": "t_string_storage"
      },
      "t_mapping(t_uint256,t_uint256)": {
        "encoding": "mapping",
        "key": "t_uint256",
        "label": "mapping(uint256 => uint256)",
        "numberOfBytes": "32",
        "value": "t_uint256"
      },
      "t_string_storage": {
        "encoding": "bytes",
        "label": "string",
        "numberOfBytes": "32"
      },
      "t_uint256": {
        "encoding": "inplace",
        "label": "uint256",
        "numberOfBytes": "32"
      }
    }
  }
}